:100000000C946D000C9495000C9495000C94950044
:100010000C9495000C9495000C9495000C9495000C
:100020000C9495000C9495000C9495000C949500FC
:100030000C9495000C9495000C9495000C949500EC
:100040000C94F2040C9495000C94F1020C94CB02E5
:100050000C9495000C9495000C9495000C949500CC
:100060000C9495000C949500456E7669616E646FF2
:100070003A2000000000080002010000030407000D
:100080000000000000000000000000250028002BF8
:100090000000000000240027002A000404040404D7
:1000A0000404040202020202020303030303030125
:1000B00002040810204080010204081020010204FC
:1000C0000810200001020304051112131415160A6A
:1000D0000B0C0D0E0F007D08710811241FBECFEF11
:1000E000D8E0DEBFCDBF11E0A0E0B1E0E2ECFDE181
:1000F00002C005900D92A036B107D9F722E0A0E624
:10010000B1E001C01D92A634B207E1F710E0CCE6E1
:10011000D0E004C02197FE010E94A10CCB36D1078C
:10012000C9F70E943C050C94D40E0C94000008956D
:10013000CF92DF92EF92FF920F931F93CF93DF93B3
:100140006C017A018B01C0E0D0E0CE15DF0581F0B3
:10015000D8016D918D01D601ED91FC910190F08156
:10016000E02DC6010995892B11F02196EECF7E0175
:10017000C701DF91CF911F910F91FF90EF90DF901A
:10018000CF90089580E090E00895FC01538D448D58
:10019000252F30E0842F90E0821B930B541710F032
:1001A000CF96089501970895FC01918D828D98173F
:1001B00061F0828DDF01A80FB11D5D968C91928D4B
:1001C0009F5F9F73928F90E008958FEF9FEF089548
:1001D000FC01918D828D981731F0828DE80FF11D11
:1001E000858D90E008958FEF9FEF0895FC01918D2C
:1001F000228D892F90E0805C9F4F821B91098F7325
:100200009927089586E791E00E94F60021E0892B66
:1002100009F420E0822F0895FC01848DDF01A80FEE
:10022000B11DA35ABF4F2C91848D90E001968F731E
:100230009927848FA689B7892C93A089B1898C913D
:10024000837080648C93938D848D981306C002888C
:10025000F389E02D80818F7D80830895EF92FF9256
:100260000F931F93CF93DF93EC0181E0888F9B8DD9
:100270008C8D981305C0E889F989808185FD26C099
:10028000F62E0B8D10E00F5F1F4F0F731127E02E1E
:100290008C8DE8120CC00FB607FCFACFE889F989FB
:1002A000808185FFF5CFCE010E940C01F1CF8B8DAF
:1002B000FE01E80FF11DE35AFF4FF0829FB7F8945B
:1002C0000B8FEA89FB89808180620AC09FB7F8940E
:1002D000EE89FF896083E889F98980818370806471
:1002E00080839FBF81E090E0DF91CF911F910F91BC
:1002F000FF90EF900895CF93DF93EC01888D8823D2
:10030000C9F0EA89FB89808185FD05C0A889B98982
:100310008C9186FD0FC00FB607FCF5CF808185FF5D
:10032000F2CFA889B9898C9185FFEDCFCE010E94CB
:100330000C01E7CFDF91CF91089580E090E0892B09
:1003400029F00E94020181110C9400000895CF93BE
:10035000DF93EC0188819981009711F00E943F0D95
:10036000198218821D821C821B821A82DF91CF9112
:100370000895FC01808191810C943F0D0F931F9390
:10038000CF93DF938C01EB01FC0180819181009779
:1003900039F06881798161157105A1F40E943F0DE2
:1003A00088819981F801918380838A819B819383DD
:1003B00082838C819D8195838483198218821B821C
:1003C0001A820FC0F801428153812C813D8142176E
:1003D000530720F30E949C0E8C819D81F801958328
:1003E00084831D821C82DF91CF911F910F9108950C
:1003F0000E948E0E0F931F93CF93DF93EC018881A1
:100400009981009729F02A813B812617370788F4C4
:100410008B016F5F7F4F0E94C80D009761F0998339
:1004200088831B830A832C813D81232B11F4FC01DB
:10043000108281E001C080E0DF91CF911F910F9188
:100440000895EF92FF920F931F93CF93DF93EC01E8
:10045000FB0104811581E080F180E114F104C9F011
:1004600001151105C9F08C819D81080F191FB80174
:10047000CE010E94FA01882361F0288139818C81A4
:100480009D81B701820F931F0E949C0E1D830C83D8
:1004900003C0CE010E94A701CE01DF91CF911F9131
:1004A0000F91FF90EF900895EF92FF920F931F939B
:1004B000CF93DF93EC01198218821B821A821D826E
:1004C0001C826115710521F18B01FB010190002057
:1004D000E9F731977F01E61AF70AB7010E94FA019E
:1004E000811109C0CE01DF91CF911F910F91FF9033
:1004F000EF900C94A701FD82EC82B801888199816C
:10050000DF91CF911F910F91FF90EF900C949C0E73
:10051000DF91CF911F910F91FF90EF9008950F936E
:100520001F93CF93DF93CDB7DEB72B970FB6F89419
:10053000DEBF0FBECDBF8C017F936F938EE291E043
:100540009F938F93CE0107969F938F930E94B20E35
:100550008F81898388858A8389858B838A858C832B
:100560008B858D831E82BE016F5F7F4FC8010E9405
:1005700054020F900F900F900F900F900F90C801A2
:100580002B960FB6F894DEBF0FBECDBFDF91CF9193
:100590001F910F9108951F920F920FB60F92112481
:1005A0002F933F934F935F936F937F938F939F937B
:1005B000AF93BF93EF93FF9386E791E00E940C0106
:1005C000FF91EF91BF91AF919F918F917F916F912B
:1005D0005F914F913F912F910F900FBE0F901F9001
:1005E00018951F920F920FB60F9211242F938F938D
:1005F0009F93EF93FF93E0918601F09187018081B3
:10060000E0918C01F0918D0182FD12C0908180916A
:100610008F018F5F8F7320919001821751F0E091CD
:100620008F01F0E0EA58FE4F958F80938F0101C053
:100630008081FF91EF919F918F912F910F900FBE2D
:100640000F901F9018958EBD00000DB407FEFDCFD2
:100650008EB5089590E0FC01E155FF4F2491FC0117
:10066000E556FF4F8491882399F090E0880F991FF9
:10067000FC01EF56FF4FA591B491FC01E957FF4FE4
:10068000859194918FB7F894EC91E22BEC938FBF06
:100690000895009769F0FC0101900020E9F7319777
:1006A000AF01481B590BBC0186E791E00C94980000
:1006B00080E090E00895CF93DF930E944903EC011E
:1006C0008DE591E00E9449038C0F9D1FDF91CF9132
:1006D000089590E0FC01ED58FF4F2491FC01E15595
:1006E000FF4F3491FC01E556FF4FE491EE2309F4EE
:1006F0003CC0222339F1233091F038F42130A9F0A5
:10070000223001F584B58F7D12C0273091F028305A
:10071000A1F02430B9F4809180008F7D03C08091D6
:1007200080008F77809380000DC084B58F7784BD63
:1007300009C08091B0008F7703C08091B0008F7D99
:100740008093B000F0E0EE0FFF1FE957FF4FA59137
:10075000B4919FB7F894611104C08C9130953823FF
:1007600002C0EC913E2B3C939FBF0895209125023F
:100770003091260240912702509128022417350714
:1007800021F0682F822F0C9469030895823091051F
:1007900038F0880F991F880F991F05970197F1F777
:1007A0000895CF93DF939CB59F7D9CBD9CB5937FAF
:1007B0009CBD9CB59C7F9CBD9DB591609DBDC5E2D7
:1007C000D2E0682F8A810E9469038C899D89DF911C
:1007D000CF910C94C60381E00C94D10380E00C947B
:1007E000D103CF93DF93C82FD62F0E94EE038C2F17
:1007F0008F7180620E942303C82F8D2F0E942303D4
:100800000E94EB038C2FDF91CF910895EF92FF921E
:100810000F931F93CF93DF93182F7B01C42F0E9458
:10082000EE03812F8F7180620E942303D82F8701EE
:10083000CC2339F0F80181918F010E942303C1502C
:10084000F7CF0E94EB038D2FDF91CF911F910F9176
:10085000FF90EF900895CF93DF93C5E2D2E04E85ED
:1008600060E071E08AE00E9406044E8560E071E07D
:1008700080E10E9406046F8181E1DF91CF910C94A9
:10088000F103CF93C82F0E94EE038C2F8F710E942B
:1008900023038FEF0E942303C82F0E94EB038C2FAA
:1008A000CF910895CF93DF93E0EDF0E0E491C5E2BE
:1008B000D2E04E85BC018E2F0E940604EAECF0E0E7
:1008C00084916F810E94F10382E00E944104E4EC74
:1008D000F0E0E49161E070E001C0660FEA95EAF7AC
:1008E000682B82E0DF91CF910C94F103CF930E94AB
:1008F000EE0381EE0E942303C82F0E94EB038C2F8E
:10090000CF9108953FB7F89480913E0290913F02B5
:10091000A0914002B091410226B5A89B05C02F3F8F
:1009200019F00196A11DB11D3FBFBA2FA92F982F15
:100930008827820F911DA11DB11DBC01CD0142E090
:10094000660F771F881F991F4A95D1F708958F92D8
:100950009F92AF92BF92CF92DF92EF92FF926B0184
:100960007C010E9482044B015C01C114D104E104AA
:10097000F104F1F00E948204DC01CB01881999098D
:10098000AA09BB09883E9340A105B10570F321E097
:10099000C21AD108E108F10888EE880E83E0981E9B
:1009A000A11CB11CC114D104E104F10419F7DDCF7D
:1009B000FF90EF90DF90CF90BF90AF909F908F907F
:1009C000089580E00E94410481FD0BC0682F6260A1
:1009D00080E00E94F10365E070E080E090E00C941C
:1009E000A70408951F920F920FB60F9211242F9310
:1009F0003F938F939F93AF93BF9380917201909198
:100A00007301A0917401B091750130913D0223E012
:100A1000230F2D3720F40196A11DB11D05C026E836
:100A2000230F0296A11DB11D20933D0280937201F8
:100A300090937301A0937401B093750180913E026D
:100A400090913F02A0914002B09141020196A11DF8
:100A5000B11D80933E0290933F02A0934002B09359
:100A60004102BF91AF919F918F913F912F910F9034
:100A70000FBE0F901F901895CF93DF93CDB7DEB7C1
:100A80002C970FB6F894DEBF0FBECDBF789484B517
:100A9000826084BD84B5816084BD85B5826085BD7A
:100AA00085B5816085BD80916E00816080936E0008
:100AB00010928100809181008260809381008091FA
:100AC00081008160809381008091800081608093AB
:100AD00080008091B10084608093B1008091B0006B
:100AE00081608093B00080917A00846080937A0066
:100AF00080917A00826080937A0080917A00816090
:100B000080937A0080917A00806880937A001092B6
:100B1000C100E0918601F091870182E08083E0913D
:100B20008201F09183011082E0918401F0918501AE
:100B30008FEC808310928E01E0918A01F0918B01FD
:100B400086E08083E0918801F09189018081806155
:100B50008083E0918801F0918901808188608083A1
:100B6000E0918801F0918901808180688083E09123
:100B70008801F091890180818F7D80838091250299
:100B80009091260220912702309128028217930724
:100B900011F00E942A03809127029091280220914F
:100BA0002502309126022817390711F00E942A03E6
:100BB0001FB7F89480916001811124C0E5EAF0E04C
:100BC0008491E9EBF0E09491E82FF0E0EE0FFF1F45
:100BD000EF56FF4FA591B491EC91E92321F461E028
:100BE0008AE00E9469038AE00E942A038CB5806132
:100BF0008CBD8CB580648CBD8DE00E942A038BE097
:100C00000E942A03809160018F5F809360011FBF63
:100C100080E00E94B60381E00E94D10365E070E0AD
:100C200080E090E00E94A7046CE080E00E94F10365
:100C30006FE584E00E94F10386E00E944104877D15
:100C4000182F10628BE990E0A0E0B0E080933502AD
:100C500090933602A0933702B0933802612F86E05A
:100C60000E94F10386E00E944104181709F424C28F
:100C700086E00E94410486E00E94410445E550E080
:100C800060E070E040933502509336026093370283
:100C900070933802682F677D86E00E94F10386E03A
:100CA0000E9441040E94EE0380E50E94230383E733
:100CB0000E9423030E94EB0360E08DE10E94F10398
:100CC00060E08CE10E94F10310922D0260E787E062
:100CD0000E94F1036CE485E00E94F1030E94EE03A0
:100CE00082EE0E9423030E94EB030E9476040E947E
:100CF000E10480E00E944104682F6E7F80E00E9442
:100D0000F10386E00E944104887F682F656086E0D9
:100D10000E94F1030E942B048CE091E00E94520497
:100D20006CEDC62E65E0D62EE12CF12C8E010F5F06
:100D30001F4F73EC472E70E0572E66246394712C7E
:100D40000E941F09A70196010E94070C7093710170
:100D5000609370010E941F09A70196010E94070C71
:100D600070936F0160936E016091700170917101D9
:100D7000C8010E948F02B8018FE192E00E94BE017B
:100D8000C8010E94B90160916E0170916F01C801A4
:100D90000E948F02B80189E192E00E94BE01C80161
:100DA0000E94B90163E371E0CE0107960E945402EC
:100DB0006FE172E0CE0107960E94210269E172E0C4
:100DC0000E9421021A8219821C821B821E821D82AD
:100DD00008171907C9F0FC01A080B180A114B10463
:100DE00099F084809580B401C8010E94FA018111B4
:100DF00004C0C8010E94A70107C09E828D82B50170
:100E000089819A810E949C0EB80183E192E00E9440
:100E1000BE01C8010E94B901CE0107960E94B90126
:100E2000A0901702B0901802A114B10419F4109206
:100E3000610114C0FCE0AF16B10418F05CE0A52E0F
:100E4000B12C6091130270911402A50181E691E02A
:100E50000E94A30EF501EF59FE4F108280E00E9420
:100E6000B60380913502909136020E94C6038DE14F
:100E70000E94410481FF08C08091350290913602A2
:100E80000E94C6030E94760480E00E944104682FFD
:100E90006E7F80E00E94F10382E00E944104F20133
:100EA0009491930101C0220F9A95EAF7682F622B63
:100EB00082E00E94F10348E6A42E40E0B42EF50142
:100EC0006491611112C081E691E00E944903809112
:100ED0002C02882E8E3010F03DE0832E90912D0252
:100EE00091110DC0982E98180BC086E791E00E94D2
:100EF0002E01FFEFAF1ABF0A892B09F7E4CF912C1F
:100F00000E94EE0380EA0E94230321E6A22E21E044
:100F1000B22E8A942FEF821202C0B92C06C0F501BE
:100F200081915F010E942303F4CFBB2029F080E070
:100F30000E942303BA94F9CF0E94EB0381E00E9440
:100F4000B6038FB7F8948090720190907301A090CF
:100F50007401B09075018FBF0E94EE038FEF0E9465
:100F60002303382E0E94EB03832D8073C1F42FB727
:100F7000F8948091720190917301A0917401B091E5
:100F800075012FBF88199909AA09BB0980369105F7
:100F9000A105B10508F381E0809334020BC080E025
:100FA0000E94B60360E787E00E94F10384FF06C059
:100FB0000E94760485E591E00E945B030E94E104B3
:100FC00080E00E944104682F616080E00E94F1038C
:100FD00060E787E00E94F10381E00E94B603809100
:100FE0002E02882341F0409133026EE272E08AE0E3
:100FF0000E9406040FC082E00E944104F201949115
:10100000B30101C0660F9A95EAF76095682382E004
:101010000E94F1038DE10E94410481FD0E9476044B
:101020000E9482044B015C0187E10E94410480FD23
:1010300047C01A82198280912C02823010F4882EC7
:1010400002C092E0892E90912D02911103C0982E3A
:10105000981801C0912C0E94EE0381E60E942303A0
:1010600058018A94FFEF8F1202C0B92C07C08FEF8E
:101070000E942303F50181935F01F3CFBB2029F088
:101080008FEF0E942303BA94F9CF0E94EB0360E72D
:1010900087E00E94F10389819A81892B21F08BE4FA
:1010A00091E00E945B0368EE73E080E090E00E94B4
:1010B000A7040E949D0144CE81E080932B02D8CDED
:1010C0000E948204DC01CB0188199909AA09BB0995
:1010D00080349D40A340B10508F4A6CF88E391E099
:1010E000E0CF83E192E00E94B90189E192E00E94A1
:1010F000B9018FE192E00C94B901E6E7F1E01382C7
:10110000128288EE93E0A0E0B0E084839583A6830A
:10111000B78380E291E09183808385EC90E09587AE
:10112000848784EC90E09787868780EC90E0918BB1
:10113000808B81EC90E0938B828B82EC90E0958B9E
:10114000848B86EC90E0978B868B118E128E138E9B
:10115000148EE5E2F2E087E090E09183808388E0FE
:1011600090E093838283168280E28783108685E0F5
:10117000868785E090E0A0E0B0E0848B958BA68B1D
:10118000B78B11866FE571E08FE192E00E94540207
:101190006FE571E089E192E00E9454026FE571E031
:1011A00083E192E00C9454028F929F92AF92BF928F
:1011B000CF92DF92EF92FF92CF93DF93EC016881A1
:1011C00079818A819B81611571058105910521F4E1
:1011D00064E279ED8BE597E02DE133EF41E050E0FB
:1011E0000E94070C49015A019B01AC01A7EAB1E436
:1011F0000E94260C6B017C01ACEEB4EFA5019401BA
:101200000E94340CDC01CB018C0D9D1DAE1DBF1D59
:10121000B7FF03C00197A109B04888839983AA83C7
:10122000BB83BC01CD019F77DF91CF91FF90EF9001
:10123000DF90CF90BF90AF909F908F9008958F9246
:101240009F92AF92BF92CF92DF92EF92FF92609106
:101250001201709113018091140190911501611593
:1012600071058105910521F464E279ED8BE597E044
:101270002DE133EF41E050E00E94070C49015A0193
:101280009B01AC01A7EAB1E40E94260C6B017C0132
:10129000ACEEB4EFA50194010E94340CDC01CB014B
:1012A0008C0D9D1DAE1DBF1DB7FF03C00197A10989
:1012B000B0488093120190931301A0931401B0934E
:1012C0001501BC01CD019F77FF90EF90DF90CF908B
:1012D000BF90AF909F908F9008956093120170938C
:1012E000130180931401909315010895ABE0B0E0D1
:1012F000ECE7F9E00C94390C6C017B018A01FC01EC
:1013000017821682838181FFCCC1CE0101963C01F8
:10131000F6019381F70193FD859193FF81917F0100
:10132000882309F4BAC1853239F493FD859193FF7E
:1013300081917F01853229F4B60190E00E946D0B06
:10134000E7CF912C212C312CFFE1F315D8F08B3213
:1013500079F038F4803279F08332A1F4232D2061C2
:101360001DC08D3261F0803369F4232D216016C0D9
:10137000832D8260382EE32DE4603E2E2AC0F32DAB
:10138000F8601DC037FC2DC020ED280F2A3040F03A
:101390008E32B9F436FC81C1232D2064322E19C05F
:1013A00036FE06C08AE0989E200D1124922E11C0B0
:1013B000EAE02E9E200D1124222EF32DF0623F2E06
:1013C00008C08C3621F4832D8068382E02C0883600
:1013D00041F4F70193FD859193FF81917F01811184
:1013E000B3CF982F9F7D9554933028F40C5F1F4FF7
:1013F0009FE399830DC0833631F0833771F08335D5
:1014000009F059C021C0F801808189830E5F1F4F08
:1014100088248394912C530113C02801F2E04F0ECD
:10142000511CF801A080B18036FE03C0692D70E028
:1014300002C06FEF7FEFC5010E94620B4C01820179
:10144000F32DFF773F2E16C0280122E0420E511CDB
:10145000F801A080B18036FE03C0692D70E002C0A3
:101460006FEF7FEFC5010E94570B4C01F32DF06821
:101470003F2E820133FC1BC0822D90E08816990616
:10148000B0F4B60180E290E00E946D0B2A94F4CF94
:10149000F50137FC859137FE81915F01B60190E03F
:1014A0000E946D0B21102A9421E0821A9108811468
:1014B000910471F7E8C0843611F0893641F5F801DE
:1014C00037FE07C060817181828193810C5F1F4F5D
:1014D00008C060817181072E000C880B990B0E5F8C
:1014E0001F4FF32DFF763F2E97FF09C090958095F3
:1014F000709561957F4F8F4F9F4FF0683F2E2AE088
:1015000030E0A3010E94A90B882E861845C08537BC
:1015100031F4232D2F7EB22E2AE030E025C0932D0A
:10152000997FB92E8F36C1F018F4883579F0B5C09F
:10153000803719F0883721F0B0C0E92FE061BE2E66
:10154000B4FE0DC0FB2DF460BF2E09C034FE0AC0EE
:10155000292F2660B22E06C028E030E005C020E129
:1015600030E002C020E132E0F801B7FE07C0608140
:101570007181828193810C5F1F4F06C060817181F0
:1015800080E090E00E5F1F4FA3010E94A90B882E00
:101590008618FB2DFF773F2E36FE0DC0232D2E7FA4
:1015A000A22E891458F434FE0BC032FC09C0832DDE
:1015B0008E7EA82E05C0B82CA32C03C0B82C01C069
:1015C000B92CA4FE0FC0FE01E80DF11D808180330F
:1015D00021F49A2D997EA92E09C0A2FE06C0B394CB
:1015E000B39404C08A2D867809F0B394A3FC11C08B
:1015F000A0FE06C0B21488F4280C922C9B180EC0D2
:10160000B21460F4B60180E290E00E946D0BB394D6
:10161000F7CFB21418F42B1802C0982C212CA4FE7A
:1016200010C0B60180E390E00E946D0BA2FE17C0CF
:10163000A1FC03C088E790E002C088E590E0B60115
:101640000CC08A2D867859F0A1FE02C08BE201C041
:1016500080E2A7FC8DE2B60190E00E946D0B891438
:1016600038F4B60180E390E00E946D0B9A94F7CFB6
:101670008A94F301E80DF11D8081B60190E00E948B
:101680006D0B8110F5CF222009F442CEB60180E225
:1016900090E00E946D0B2A94F6CFF6018681978127
:1016A00002C08FEF9FEF2B96E2E10C94550CFC01EA
:1016B0000590615070400110D8F7809590958E0F7D
:1016C0009F1F0895FC016150704001900110D8F7F0
:1016D000809590958E0F9F1F08950F931F93CF9322
:1016E000DF93FB01238121FD03C08FEF9FEF2CC00F
:1016F00022FF16C046815781248135814217530746
:1017000044F4A081B1819D012F5F3F4F318320833D
:101710008C93268137812F5F3F4F3783268314C0F8
:101720008B01EC01FB010084F185E02D0995892BEB
:10173000E1F6D80116968D919C9117970196179610
:101740009C938E931697CE01DF91CF911F910F91AD
:101750000895FA01AA27283051F1203181F1E89447
:101760006F936E7F6E5F7F4F8F4F9F4FAF4FB1E094
:101770003ED0B4E03CD0670F781F891F9A1FA11D8F
:10178000680F791F8A1F911DA11D6A0F711D811D90
:10179000911DA11D20D009F468943F912AE0269F55
:1017A00011243019305D3193DEF6CF010895462FB4
:1017B0004770405D4193B3E00FD0C9F7F6CF462F95
:1017C0004F70405D4A3318F0495D31FD40524193FE
:1017D00002D0A9F7EACFB4E0A695979587957795BB
:1017E0006795BA95C9F700976105710508959B0142
:1017F000AC010A2E06945795479537952795BA95CB
:10180000C9F7620F731F841F951FA01D0895052E31
:1018100097FB1EF400940E941E0C57FD07D00E94F7
:10182000700C07FC03D04EF40C941E0C50954095A0
:10183000309521953F4F4F4F5F4F0895909580957C
:10184000709561957F4F8F4F9F4F08950E94920C26
:10185000A59F900DB49F900DA49F800D911D112404
:101860000895B7FF0C94260C0E94260C821B930B44
:1018700008952F923F924F925F926F927F928F9234
:101880009F92AF92BF92CF92DF92EF92FF920F930F
:101890001F93CF93DF93CDB7DEB7CA1BDB0B0FB619
:1018A000F894DEBF0FBECDBF09942A8839884888D6
:1018B0005F846E847D848C849B84AA84B984C8846C
:1018C000DF80EE80FD800C811B81AA81B981CE0F63
:1018D000D11D0FB6F894DEBF0FBECDBFED01089548
:1018E000A1E21A2EAA1BBB1BFD010DC0AA1FBB1F24
:1018F000EE1FFF1FA217B307E407F50720F0A21B96
:10190000B30BE40BF50B661F771F881F991F1A9402
:1019100069F760957095809590959B01AC01BD012C
:10192000CF010895A29FB001B39FC001A39F700D86
:10193000811D1124911DB29F700D811D1124911DD7
:101940000895EE0FFF1F0590F491E02D09940F9379
:101950001F93CF93DF938230910510F482E090E0E3
:10196000E0914402F091450220E030E0A0E0B0E0D8
:10197000309719F14081518102811381481759072D
:10198000C8F08417950769F4109731F012960C93FC
:10199000129713961C9327C000934402109345029C
:1019A00022C02115310519F04217530718F49A0186
:1019B000BD01EF01DF01F801DBCF21153105F9F0A1
:1019C000281B390B2430310580F48A819B816115F5
:1019D000710521F0FB019383828304C0909345023B
:1019E00080934402FE01329644C0FE01E20FF31FD1
:1019F0008193919322503109398328833AC02091F1
:101A0000420230914302232B41F42091180130917E
:101A10001901309343022093420220911601309124
:101A200017012115310541F42DB73EB740911A0138
:101A300050911B01241B350BE0914202F0914302AF
:101A4000E217F307A0F42E1B3F0B2817390778F095
:101A5000AC014E5F5F4F2417350748F04E0F5F1FF4
:101A600050934302409342028193919302C0E0E07D
:101A7000F0E0CF01DF91CF911F910F910895CF93A7
:101A8000DF93009709F481C0FC0132971382128220
:101A9000A0914402B0914502109781F420813181D8
:101AA000820F931F20914202309143022817390779
:101AB00051F5F0934302E093420267C0ED0120E04C
:101AC00030E0CE17DF0740F44A815B819E0141156B
:101AD0005105F1F0EA01F5CFD383C28340815181F2
:101AE000840F951FC817D90759F488819981840FED
:101AF000951F0296918380838A819B819383828341
:101B00002115310529F4F0934502E09344023DC0CC
:101B1000E901FB83EA8349915991C40FD51FEC1762
:101B2000FD0761F480819181840F951F0296E90180
:101B300099838883828193819B838A83E0E0F0E0AC
:101B400012968D919C911397009719F0FD01DC017D
:101B5000F7CF8D919C9111979D012E5F3F4F820F82
:101B6000931F20914202309143022817390769F4EC
:101B7000309729F4109245021092440202C0138259
:101B80001282B0934302A0934202DF91CF91089555
:101B9000A0E0B0E0EEECFDE00C943D0CEC01009711
:101BA00021F4CB010E94A70CB4C0FC01E60FF71F83
:101BB0009C0122503109E217F30708F4A8C0D901AB
:101BC0000D911C91119706171707B0F005301105FC
:101BD00008F49BC0C80104978617970708F495C0BE
:101BE00002501109061B170B019311936D937C93FF
:101BF000CF010E943F0D89C05B01A01AB10A4C01C0
:101C0000800E911EA0914402B0914502612C712C6E
:101C1000E12CF12C109709F446C08D919C911197FD
:101C2000A815B905B1F56C0142E0C40ED11CCA1467
:101C3000DB0478F14C018A189B08640142E0C40E71
:101C4000D11C1296BC9012971396AC91B5E0CB16AE
:101C5000D10440F0B282A38391828082D9016D9336
:101C60007C9309C00E5F1F4F800F911FF901918374
:101C70008083EB2DFA2FE114F10431F0D701139694
:101C8000FC93EE93129741C0F0934502E093440217
:101C90003CC06816790608F43C017D0112960D904F
:101CA000BC91A02DB7CF809142029091430288163B
:101CB0009906E1F466167706C8F4809116019091B2
:101CC0001701009741F48DB79EB740911A015091CA
:101CD0001B01841B950BE817F907C8F4F093430226
:101CE000E0934202F901718360830FC0CB010E942F
:101CF000A70C7C01009759F0A801BE010E94930E29
:101D0000CE010E943F0DC70104C0CE0102C080E099
:101D100090E0CDB7DEB7EEE00C94590C81E090E096
:101D2000F8940C94D40EFB01DC0102C001900D92DA
:101D300041505040D8F70895FB01DC0101900D920D
:101D40000020E1F70895FB01DC014150504048F0CC
:101D500001900D920020C9F701C01D9241505040E2
:101D6000E0F70895AEE0B0E0E8EBFEE00C94470C3D
:101D70000D891E8986E08C831A8309838FEF9FE784
:101D80009E838D83AE01475E5F4F6F89788DCE0154
:101D900001960E947609EF81F885E00FF11F10820D
:101DA0002E96E4E00C94630C10E0CCE6D0E004C086
:101DB000FE010E94A10C2196CD36D107C9F7F894F7
:021DC000FFCF53
:101DC200314E6F646500324E6F646500334E6F644E
:101DD20065000100000000004602800000000000D3
:101DE2002E019800C5007B01F600D400E800252EE4
:101DF20034750041413032000820082054656D706E
:101E02006F204573676F7461646F003A20456E7688
:101E12006961646F003A2046616C6861000D0A00D6
:107E0000112484B714BE81FFF0D085E080938100F7
:107E100082E08093C00088E18093C10086E0809377
:107E2000C20080E18093C4008EE0C9D0259A86E02C
:107E300020E33CEF91E0309385002093840096BBD3
:107E4000B09BFECF1D9AA8958150A9F7CC24DD24C4
:107E500088248394B5E0AB2EA1E19A2EF3E0BF2EE7
:107E6000A2D0813461F49FD0082FAFD0023811F036
:107E7000013811F484E001C083E08DD089C08234E0
:107E800011F484E103C0853419F485E0A6D080C0E4
:107E9000853579F488D0E82EFF2485D0082F10E0AE
:107EA000102F00270E291F29000F111F8ED06801E7
:107EB0006FC0863521F484E090D080E0DECF843638
:107EC00009F040C070D06FD0082F6DD080E0C81688
:107ED00080E7D80618F4F601B7BEE895C0E0D1E017
:107EE00062D089930C17E1F7F0E0CF16F0E7DF06D8
:107EF00018F0F601B7BEE89568D007B600FCFDCFD4
:107F0000A601A0E0B1E02C9130E011968C91119780
:107F100090E0982F8827822B932B1296FA010C0160
:107F200087BEE89511244E5F5F4FF1E0A038BF0790
:107F300051F7F601A7BEE89507B600FCFDCF97BE46
:107F4000E89526C08437B1F42ED02DD0F82E2BD052
:107F50003CD0F601EF2C8F010F5F1F4F84911BD097
:107F6000EA94F801C1F70894C11CD11CFA94CF0C13
:107F7000D11C0EC0853739F428D08EE10CD085E9AC
:107F80000AD08FE07ACF813511F488E018D01DD067
:107F900080E101D065CF982F8091C00085FFFCCF94
:107FA0009093C60008958091C00087FFFCCF809118
:107FB000C00084FD01C0A8958091C6000895E0E648
:107FC000F0E098E1908380830895EDDF803219F02E
:107FD00088E0F5DFFFCF84E1DECF1F93182FE3DFCA
:107FE0001150E9F7F2DF1F91089580E0E8DFEE27F6
:047FF000FF270994CA
:027FFE00040479
:0400000300007E007B
:00000001FF
